:020000040800F2
:1000000000500020C5170008D9150008DF150008AA
:10001000E5150008EB150008F115000800000000C8
:10002000000000000000000000000000F7150008BC
:1000300003160008000000000F1600081D16000837
:100040000D1800080D1800080D1800080D180008FC
:100050000D1800080D1800080D1800080D180008EC
:100060000D1800080D1800080D1800080D180008DC
:100070000D1800080D1800080D1800080D180008CC
:100080000D1800080D1800080D1800080D180008BC
:10009000591600080D1800080D1800080D18000862
:1000A0000D1800080D1800080D1800080D1800089C
:1000B0006D160008251700080D1800080D18000817
:1000C0000D1800080D1800080D1800080D1800087C
:1000D0000D180008391700080D1800080D18000841
:1000E0000D1800080D1800080D1800080000000089
:1000F0000000000000000000000000000000000000
:0C01000000000000000000005FF808F1A3
:10010C0010B5054C237833B9044B13B10448AFF345
:10011C0000800123237010BD0001002000000000AE
:10012C0050A7000808B5034B1BB103490348AFF3B4
:10013C00008008BD000000000401002050A700084A
:10014C00034613F8012B002AFBD1181A013870470B
:10015C0080B485B000AF78600023FB6016E0FB68CC
:10016C0003F5003301339B027A689A420BD2FB6889
:10017C0003F500339B027A689A4204D3FB6803F5BB
:10018C0000339B0206E0FB680133FB60FB687F2BAE
:10019C00E5DD002318461437BD4680BC70470000CF
:1001AC00B0B58AB000AFF860B9601346FB8000238D
:1001BC007B6203F0E3F9F868FFF7CAFF3862FB884B
:1001CC009B001A46FB681344FB61F869FFF7C0FFFC
:1001DC00B861204B00221A601E4A3B6A9360BA69D0
:1001EC003B6AD31A9B0A01331A4AD36007F11403F2
:1001FC001946184803F0B4FA0346002B1FD003F03D
:10020C00F3F9034622E07B6A9B00BA6813441B682F
:10021C0000221C46154622462B46F968022003F0A4
:10022C003DF90346002B06D1FB680433FB607B6A67
:10023C0001337B6203E003F0D7F9034606E0FB8849
:10024C007A6A9A42DFDB03F0BFF90023184628379D
:10025C00BD46B0BD1C01002080B485B000AFF86075
:10026C00B9601346FB80FB681A68BB681A60FB68B0
:10027C000433FB60BB680433BB60FB885A1EFA80F6
:10028C00002B00D0EFE700BF00BF1437BD4680BC89
:10029C007047000080B500AF00221021034803F026
:1002AC008BFC012002F0B6F900BF80BD00080140B4
:1002BC0080B500AF01221021034803F07DFC012022
:1002CC0002F0A8F900BF80BD0008014080B582B0E3
:1002DC0000AF0346FB7100BF084B1B689B6803F023
:1002EC000203022BF8D1F91D64230122034804F008
:1002FC0033F900BF0837BD4680BD00BF5C0100204C
:10030C0080B582B000AF78600B467B8000BF084B95
:10031C001B689B6803F00203022BF8D17A886423D4
:10032C007968034804F018F900BF0837BD4680BD52
:10033C005C01002080B584B002AFFF23FB7100BFCD
:10034C00094B1B689B6803F00203022BF8D1BA1D02
:10035C00F91D642300930123034804F039FABB7997
:10036C0018460837BD4680BD5C01002080B582B0C0
:10037C0000AF7860FFF7DEFF03461A467B681A7001
:10038C0000BF0837BD4680BD80B582B000AF0A4BB8
:10039C004FF4FA721A80FFF7CDFF0346FB71FB791D
:1003AC00FF2B03D0044B1B88002BF4D1FB79184690
:1003BC000837BD4680BD00BF2E01002080B584B03B
:1003CC0000AF41F6FF73FB60FFF772FF0023BB60C9
:1003DC0005E0FF20FFF77AFFBB680133BB60BB6809
:1003EC00092BF6DDFFF756FF40233B7000237B7093
:1003FC000023BB700023FB7000233B7195237B71A2
:10040C003B4606211846FFF77BFF02E0FB68013BE9
:10041C00FB60FFF78FFF0346012B02D0FB68002B1C
:10042C00F4D1FFF745FFFF20FFF750FF034B0122EC
:10043C001A7000BF1037BD4680BD00BF31010020CF
:10044C0080B400AF034B00221A7000BFBD4680BCC5
:10045C00704700BF3101002080B400AF024B1B7805
:10046C001846BD4680BC70473101002080B584B071
:10047C0000AF78603960134BC8221A80FFF75AFF1F
:10048C000346FB73FB7BFF2B03D10E4B1B88002B0E
:10049C00F4D1FB7BFE2B01D000230FE07B685A1CB0
:1004AC007A601846FFF762FF3B685A1E3A60002BD1
:1004BC00F4D1FFF73FFFFFF73DFF0123184610373C
:1004CC00BD4680BD2C01002080B584B000AF7860A3
:1004DC000B46FB700023BB73FFF756FF0346FF2B45
:1004EC0001D000232FE0FB781846FFF7EFFEFB78D6
:1004FC00FD2B20D04FF400717868FFF701FFFFF758
:10050C0019FFFFF717FF0BE0FFF714FF0346FB7310
:10051C00FB7B03F01F03052B06D0BB7B0133BB73A6
:10052C00BB7B402BF0D900E000BF00BFFFF702FF00
:10053C000346002BFAD0FB7B03F01F03052B01D1E4
:10054C00012300E0002318461037BD4680BD80B55E
:10055C0084B000AF03463960FB71FFF715FF03460B
:10056C00FF2B01D0FF2342E0FB791846FFF7AEFECC
:10057C003B681B0EDBB21846FFF7A8FE3B681B0C52
:10058C00DBB21846FFF7A2FE3B681B0ADBB218462B
:10059C00FFF79CFE3B68DBB21846FFF797FEFB7932
:1005AC00402B02D19523FB7307E0FB79482B02D13A
:1005BC008723FB7301E00123FB73FB7B1846FFF7DA
:1005CC0085FEFB794C2B01D1FFF7B4FE0A23BB73DC
:1005DC00FFF7B0FE03467B7397F90D30002B05DA5D
:1005EC00BB7B013BBB73BB7B002BF1D17B7B1846E8
:1005FC001037BD4680BD000090B585B000AF0346F6
:10060C00FB71FB79002B01D00123D1E06A4B1B78E5
:10061C00DBB203F00203002B03D0674B1B78DBB279
:10062C00C6E0FFF7CBFEFFF735FE0023BB730021BE
:10063C004020FFF78CFF0346012B40F0A1805F4B5D
:10064C004FF47A721A804FF4D5714820FFF77FFF70
:10065C000346012B55D10023FB730CE0FC7BFFF709
:10066C0069FE03461A4604F110033B4403F8082CB8
:10067C00FB7B0133FB73FB7B032BEFD9BB7A012B89
:10068C007ED1FB7AAA2B7BD100217720FFF75FFF6D
:10069C000346012B07D84FF080416920FFF757FF25
:1006AC000346002B04D0454B1B88002BECD100E0FB
:1006BC0000BF424B1B88002B62D000217A20FFF731
:1006CC0046FF0346002B5BD10023FB730CE0FC7B45
:1006DC00FFF730FE03461A4604F110033B4403F8BF
:1006EC00082CFB7B0133FB73FB7B032BEFD93B7A91
:1006FC0003F04003002B01D00C2300E00423BB7358
:10070C003EE000217720FFF722FF0346012B08D89B
:10071C0000216920FFF71BFF0346012B01D80223A0
:10072C0000E00123BB73BB7B022B0ED10021772091
:10073C00FFF70DFF0346012B0ED800216920FFF7B0
:10074C0006FF0346002B07D10CE000214120FFF7E8
:10075C00FEFE0346002B04D0184B1B88002BE2D165
:10076C0000E000BF154B1B88002B07D04FF4007125
:10077C005020FFF7ECFE0346002B01D00023BB7387
:10078C000F4ABB7B1370FFF793FDFFF7D3FDBB7BC9
:10079C00002B08D0084B1B78DBB223F00103DAB234
:1007AC00054B1A7001E0FFF74BFE034B1B78DBB2D5
:1007BC0018461437BD4690BD000000202C010020C7
:1007CC003001002080B483B000AF0346FB71FB798D
:1007DC00002B01D0012302E0034B1B78DBB218463F
:1007EC000C37BD4680BC70470000002080B584B03B
:1007FC0000AFB9607A603B600346FB73FB7B002B58
:10080C0002D13B68002B01D1042351E02A4B1B7809
:10081C00DBB203F00103002B01D0032348E0274B8C
:10082C001B7803F00403002B02D17B685B027B6016
:10083C00FFF730FD3B68012B11D179685120FFF790
:10084C0086FE0346002B29D14FF40071B868FFF7E0
:10085C000DFE0346002B21D000233B601EE079687F
:10086C005220FFF774FE0346002B17D14FF4007192
:10087C00B868FFF7FBFD0346002B0AD0BB6803F5F5
:10088C000073BB603B68013B3B603B68002BEDD1C8
:10089C0000E000BF00214C20FFF759FEFFF708FDD8
:1008AC00FFF748FD3B68002B14BF01230023DBB28C
:1008BC0018461037BD4680BD0000002030010020D6
:1008CC0080B584B000AFB9607A603B600346FB73BF
:1008DC00FB7B002B02D13B68002B01D104236BE086
:1008EC00374B1B78DBB203F00103002B01D0032341
:1008FC0062E0334B1B78DBB203F00403002B01D016
:10090C00022359E02F4B1B7803F00403002B02D178
:10091C007B685B027B60FFF7BDFC3B68012B10D151
:10092C0079685820FFF713FE0346002B3AD1FE21BD
:10093C00B868FFF7C9FD0346002B33D000233B609A
:10094C0030E0204B1B7803F00203002B07D0002172
:10095C007720FFF7FCFD39685720FFF7F8FD796821
:10096C005920FFF7F4FD0346002B1BD1FC21B8687E
:10097C00FFF7AAFD0346002B0AD0BB6803F50073F2
:10098C00BB603B68013B3B603B68002BEED100E059
:10099C0000BFFD210020FFF797FD0346002B01D17E
:1009AC0001233B60FFF784FCFFF7C4FC3B68002B82
:1009BC0014BF01230023DBB218461037BD4680BD9F
:1009CC00000000203001002090B58BB000AF034632
:1009DC003A60FB710B46BB713B683B62FB79002BA9
:1009EC0001D0042315E1012387F82730BB79052BAF
:1009FC0024D13B6A1B78022B12D0022B1ADC002B61
:100A0C0002D0012B06D015E0FFF71AFD002387F862
:100A1C002730FCE0FFF7D2FC002387F82730F6E004
:100A2C003B6A5C1CFFF718FD03462370002387F814
:100A3C002730ECE0042387F82730E8E0774B1B786D
:100A4C00DBB203F00103002B01D00323E1E0FFF73D
:100A5C0021FCBB790D2B00F2CB8001A252F823F0C4
:100A6C00670B0008A50A0008570B0008FD0B0008CF
:100A7C00FD0B0008FD0B0008FD0B0008FD0B00082A
:100A8C00FD0B0008FD0B0008FD0B0008790B00089E
:100A9C009D0B0008C10B000800214920FFF757FDF2
:100AAC000346002B40F0A88007F10C0310211846D8
:100ABC00FFF7DCFC0346002B00F09E803B7B9B0980
:100ACC00DBB2012B0ED17B7D9AB23B7D9BB21B021C
:100ADC009BB213449BB20133FB83FB8B9A023B68A2
:100AEC001A602EE07B7C03F00F03DAB2BB7DDB09CE
:100AFC00DBB21344DAB27B7D5B00DBB203F006039E
:100B0C00DBB21344DBB2023387F826303B7D9B0902
:100B1C00DBB29AB2FB7C9BB29B009BB213449AB2A1
:100B2C00BB7C9B029BB203F440639BB213449BB20D
:100B3C000133FB83FA8B97F82630093B9A403B68CC
:100B4C001A60002387F8273056E03B684FF4007298
:100B5C001A80002387F8273055E0FFF715FC034671
:100B6C00FF2B4BD1002387F8273047E00021492089
:100B7C00FFF7EDFC0346002B42D11021386AFFF73A
:100B8C0075FC0346002B3BD0002387F8273037E059
:100B9C0000214A20FFF7DBFC0346002B32D1102149
:100BAC00386AFFF763FC0346002B2BD0002387F831
:100BBC00273027E000217A20FFF7C9FC0346002BE1
:100BCC0016D1002387F826300BE03C6A631C3B628D
:100BDC00FFF7B0FB0346237097F82630013387F8F4
:100BEC00263097F82630032BEFD9002387F82730CF
:100BFC00042387F8273006E000BF04E000BF02E0C2
:100C0C0000BF00E000BFFFF753FBFFF793FB97F823
:100C1C00273018462C37BD4690BD00BF0000002081
:100C2C0080B483B000AF00237B6007E0084A7B6888
:100C3C00134400221A707B6801337B607B681D2B88
:100C4C00F4DD00BF00BF0C37BD4680BC704700BF51
:100C5C004C23002080B582B000AF7860012204499B
:100C6C00044804F0D6FC00BF0837BD4680BD00BF69
:100C7C00EC2300204402002090B587B004AF7860CC
:100C8C007B681B68B3F1804F01D101F017FC7B68C6
:100C9C001B68324A93425CD1314B1B686433304A37
:100CAC00136001222F49304807F0E2FD03461A4633
:100CBC002E4B1A702D4B1B78002B4AD12C4B1B68DA
:100CCC001A462C492C4809F0C3F802222A492B4811
:100CDC0007F018FE03461A46244B1A70234B1B7858
:100CEC00002B0ED013222449244807F00BFE244974
:100CFC00244809F0ADF82149224808F07BFFFFF7A2
:100D0C008FFF1E4B03F58053DB6819461B4808F018
:100D1C0043FC134B1868124B5C68114B9B68104AD0
:100D2C00D2680F4909690291019200932346024649
:100D3C001549144809F08CF81049124808F05AFF6C
:100D4C00FFF76EFF0D4808F0FCFB03461A46074BF5
:100D5C001A7000BF0C37BD4690BD00BF00040040A8
:100D6C007023002068A70008CC0200202823002054
:100D7C006C2300206CA700082C230020FC12002000
:100D8C0078A700084C23002098A7000880B500AF76
:100D9C0001F0DEFB00F046F800F0E6F900F088F810
:100DAC0000F0B8F900F08CF905F08CF800F0B6F80A
:100DBC0000F0EAF800F036F900F05CFD124803F0A0
:100DCC009FFF124803F09CFF01221149114804F0C7
:100DDC0020FC322001F01EFC02220F490F48FFF7C5
:100DEC003BFA0D4B1B6801330B4A136002220A4974
:100DFC000A48FFF7D5F90A4B00221A604FF47A70B3
:100E0C0001F008FCFAE700BFB4010020FC0100204F
:100E1C00EC230020440200206C23002000FC01087D
:100E2C007023002080B590B000AF07F11803282282
:100E3C000021184609F004F83B1D00221A605A6084
:100E4C009A60DA601A610123BB614FF48033FB6155
:100E5C0000233B620123BB6202237B634FF480338C
:100E6C00BB634FF4E013FB6307F11803184602F061
:100E7C00D5FE0346002B01D000F006FA0F237B6051
:100E8C000223BB600023FB604FF480633B610023B3
:100E9C007B613B1D0221184603F042F90346002BEF
:100EAC0001D000F0F1F900BF4037BD4680BD000015
:100EBC0080B500AF174B184A1A60164B12225A60B5
:100ECC00144B00229A60134B0022DA60114B4FF442
:100EDC0040321A610F4B4FF400125A610D4B002235
:100EEC001A760C4B00225A760A4B00229A76094B42
:100EFC000022DA76074B00221A77064B00225A772B
:100F0C00044801F0ABFB0346002B01D000F0BCF908
:100F1C0000BF80BD340100200064004080B500AFEC
:100F2C00174B184A1A60164B4FF482725A60144BC6
:100F3C0000229A60124B0022DA60114B00221A61D7
:100F4C000F4B00225A610E4B4FF400729A610C4BFE
:100F5C002022DA610A4B00221A62094B00225A62E3
:100F6C00074B00229A62064B0A22DA62044803F00D
:100F7C006FFA0346002B01D000F086F900BF80BD4C
:100F8C005C0100200030014080B586B000AF07F155
:100F9C00080300221A605A609A60DA603B4600220D
:100FAC001A605A601E4B4FF080421A601C4B4FF473
:100FBC00FA625A601A4B00229A60194B4FF6FF12D4
:100FCC00DA60174B00221A61154B80229A61144883
:100FDC0003F046FE0346002B01D000F055F94FF408
:100FEC008053BB6007F1080319460D4803F0E2FF7C
:100FFC000346002B01D000F047F900233B6000238F
:10100C007B603B461946064804F0B4F90346002BB6
:10101C0001D000F039F900BF1837BD4680BD00BFC4
:10102C00B401002080B586B000AF07F108030022A0
:10103C001A605A609A60DA603B4600221A605A6065
:10104C001D4B1E4A1A601C4B77225A601A4B002209
:10105C009A60194B4EF65F22DA60174B00221A6128
:10106C00154B80229A61144803F0FAFD0346002BBD
:10107C0001D000F009F94FF48053BB6007F108036D
:10108C0019460D4803F096FF0346002B01D000F0E3
:10109C00FBF800233B6000237B603B461946064867
:1010AC0004F068F90346002B01D000F0EDF800BF06
:1010BC001837BD4680BD00BFFC0100200004004075
:1010CC0080B500AF114B124A1A60104B4FF4E1324D
:1010DC005A600E4B00229A600C4B0022DA600B4BCC
:1010EC0000221A61094B0C225A61084B00229A61AA
:1010FC00064B0022DA61054804F0ACF90346002BDC
:10110C0001D000F0C1F800BF80BD00BF4402002038
:10111C000038014080B500AF114B124A1A60104BD9
:10112C004FF416525A600E4B00229A600C4B002260
:10113C00DA600B4B00221A61094B0C225A61084BE6
:10114C0000229A61064B0022DA61054804F082F90C
:10115C000346002B01D000F097F800BF80BD00BF04
:10116C00880200200044004080B588B000AF07F131
:10117C00100300221A605A609A60DA603E4B9B6939
:10118C003D4A43F0100393613B4B9B6903F0100302
:10119C00FB60FB68384B9B69374A43F02003936133
:1011AC00354B9B6903F02003BB60BB68324B9B69DA
:1011BC00314A43F0040393612F4B9B6903F0040302
:1011CC007B607B682C4B9B692B4A43F00803936133
:1011DC00294B9B6903F008033B603B6800224FF4EA
:1011EC000051264802F0E8FC00221021244802F0AD
:1011FC00E3FC4FF400533B6101237B610023BB6193
:10120C000223FB6107F1100319461C4802F050FB46
:10121C004FF440433B6103237B6107F110031946F4
:10122C00164802F045FB48F203133B6103237B6134
:10123C0007F110031946124802F03AFB10233B61E8
:10124C0001237B610023BB610223FB6107F11003C7
:10125C0019460B4802F02CFB4FF6FF733B6103233E
:10126C007B6107F110031946064802F021FB00BF11
:10127C002037BD4680BD00BF001002400010014069
:10128C0000080140000C014080B400AF72B600BFF2
:10129C00FEE7000080B485B000AF154B9B69144A83
:1012AC0043F001039361124B9B6903F00103BB6094
:1012BC00BB680F4BDB690E4A43F08053D3610C4B78
:1012CC00DB6903F080537B607B680A4B5B68FB60D7
:1012DC00FB6823F0E063FB60FB6843F00073FB608A
:1012EC00044AFB68536000BF1437BD4680BC70478E
:1012FC00001002400000014080B588B000AF78605B
:10130C0007F1100300221A605A609A60DA607B6859
:10131C001B68204A934239D11F4BDB691E4A43F0AC
:10132C000073D3611C4BDB6903F00073FB60FB683B
:10133C00194B9B69184A43F004039361164B9B6944
:10134C0003F00403BB60BB684FF400633B610023F4
:10135C007B610023BB6107F1100319460F4802F0B3
:10136C00A7FA4FF480533B6102237B610323FB619B
:10137C0007F110031946094802F09AFA00220021DD
:10138C00142001F0A4FF142001F0BDFF00BF203792
:10139C00BD4680BD006400400010024000080140C2
:1013AC0080B588B000AF786007F1100300221A6096
:1013BC005A609A60DA607B681B681B4A93422FD193
:1013CC001A4B9B69194A43F480539361174B9B69E1
:1013DC0003F48053FB60FB68144B9B69134A43F086
:1013EC0004039361114B9B6903F00403BB60BB685E
:1013FC00A0233B6102237B610323FB6107F11003F4
:10140C0019460B4802F054FA40233B6100237B61E0
:10141C000023BB6107F110031946054802F048FA96
:10142C0000BF2037BD4680BD003001400010024097
:10143C000008014080B584B000AF78607B681B6801
:10144C00B3F1804F14D1194BDB69184A43F00103F7
:10145C00D361164BDB6903F00103FB60FB680022D0
:10146C0000211C2001F033FF1C2001F04CFF18E080
:10147C007B681B680E4A934213D10C4BDB690B4AF9
:10148C0043F00203D361094BDB6903F00203BB6039
:10149C00BB68002201211D2001F019FF1D2001F065
:1014AC0032FF00BF1037BD4680BD00BF00100240A8
:1014BC000004004080B58AB000AF786007F11803D3
:1014CC0000221A605A609A60DA607B681B683B4A9B
:1014DC0093423AD13A4B9B69394A43F48043936126
:1014EC00374B9B6903F480437B617B69344B9B696D
:1014FC00334A43F004039361314B9B6903F00403BB
:10150C003B613B694FF40073BB610223FB61032316
:10151C007B6207F1180319462A4802F0C9F94FF407
:10152C008063BB610023FB6100233B6207F118035E
:10153C001946244802F0BCF900220021252001F0B4
:10154C00C6FE252001F0DFFE34E07B681B681E4AD6
:10155C0093422FD11A4BDB69194A43F40033D36100
:10156C00174BDB6903F40033FB60FB68144B9B697E
:10157C00134A43F004039361114B9B6903F004037A
:10158C00BB60BB680423BB610223FB6103237B624A
:10159C0007F1180319460B4802F08AF90823BB61BE
:1015AC000023FB6100233B6207F118031946054831
:1015BC0002F07EF900BF2837BD4680BD00380140DF
:1015CC0000100240000801400044004080B400AF0D
:1015DC00FEE780B400AFFEE780B400AFFEE780B456
:1015EC0000AFFEE780B400AFFEE780B400AF00BFF1
:1015FC00BD4680BC704780B400AF00BFBD4680BC08
:10160C00704780B400AF00BFBD4680BC704700007F
:10161C0080B500AF0B4B1B78002B05D0094B1B780A
:10162C00013BDAB2074B1A70074B1B78002B05D025
:10163C00054B1B78013BDAB2034B1A7000F0CEFF5E
:10164C0000BF80BD2C0100202E01002080B500AF12
:10165C00024801F041FB00BF80BD00BF34010020F7
:10166C0080B582B000AF284B1B780133DAB2264B21
:10167C001A70254B9B780133DAB2234B9A702348AE
:10168C0003F090FB204B1B78062B0BD81E4B5B7882
:10169C00062B07D81C4B9B78062B03D81A4BDB78F0
:1016AC00062B27D900237B6021E07B68002B03D01D
:1016BC007B68022B0CD017E0134B1B78062B03D93D
:1016CC00134B01221A700FE0114B00221A700BE021
:1016DC000D4B9B78062B03D90D4B00229A7002E020
:1016EC000B4B01229A7000BF7B6801337B607B68D7
:1016FC00032BDADD4FF48041064802F075FA00BF87
:10170C000837BD4680BD00BF84230020B4010020F3
:10171C005C2400200010014080B500AF024803F0AB
:10172C0041FB00BF80BD00BFFC01002080B500AFB5
:10173C00024803F09FFF00BF80BD00BF44020020A1
:10174C0080B586B000AF7860144A154BD31A7B6114
:10175C007B693B61134B1B68002B02D1114B124A66
:10176C001A60104B1A687B6813443A699A4207D284
:10177C0008F03CFB03460C221A604FF0FF3309E0E3
:10178C00084B1B68FB60074B1A687B681344054ABF
:10179C001360FB6818461837BD4680BD005000200A
:1017AC000004000088230020C828002080B400AF6B
:1017BC0000BFBD4680BC70470C480D490D4A002344
:1017CC0002E0D458C4500433C4188C42F9D30A4AEA
:1017DC000A4C002301E013600432A242FBD3FFF752
:1017EC00E5FF08F009FBFFF7D1FA70470000002075
:1017FC00FC00002080AF000800010020C42800205D
:10180C00FEE7000080B500AF174B36221A60164B6E
:10181C0008221A61144B00229A60134B0022DA60E2
:10182C00124B00225A61114B01221A620F4B0022FB
:10183C001A610E4B00221A600C4B00225A600B4BA3
:10184C0000229A60094B0022DA60084B00229A6150
:10185C00064B0122DA61054B00225A620349044807
:10186C0000F0F7FF00BF80BD8C230020C0230020B8
:10187C003401002080B500AF054801F0B3F8022117
:10188C00034801F004FAFFF7BDFF00BF80BD00BFA5
:10189C003401002080B584B000AF7860164B174A35
:1018AC000021786801F0E2F8144B1B68DAB2144B93
:1018BC001A704FF40051134802F096F90023FB7391
:1018CC0008E0FA7BFB7B0C49895C0F4AD154FB7B0B
:1018DC000133FB73FB7B072BF3D9094B1B781846A1
:1018EC0000F0F8FB064B1B78184600F0C5FD00BF56
:1018FC001037BD4680BD00BFEC230020A423002080
:10190C00E823002000100140F8230020F0B593B02C
:10191C000EAF7F4B1B78013B042B00F2428101A2DE
:10192C0052F823F045190008A1190008411A0008C3
:10193C00AF1A0008591B0008764B1968764B1B78B8
:10194C001E46764B1B68744AD2781446744A126849
:10195C007148007905467348069005950492714AC2
:10196C000392029401936F4B009333460A466E49DF
:10197C006E4808F06DFA0346FB60FB689AB264236C
:10198C006A496B4803F0B3FD634B1B781A46694BED
:10199C009A6006E1684B1A685F4B5B799C46674B13
:1019AC001B685D49897908465B49C9790C465A49D7
:1019BC00097A0D465849497A0E465749897A796011
:1019CC005549C97A396057490D91D7F800E0CDF8DF
:1019DC0030E054490B9179680A9152490991089663
:1019EC005049079106954F49059104944D4903912F
:1019FC00029001934B4B0093634651494B4808F0BE
:101A0C0027FA0346FB60FB689AB2642347494848AF
:101A1C0003F06DFD404B5B791A46464BDA603E4B4A
:101A2C005B791A4640F2C24302FB03F31A46414B60
:101A3C001A61B6E0384B1B7B9C46374B5B7B1A46D6
:101A4C00354B9B7B1946344BDB7B1846324B1B7C4E
:101A5C001C46314B5B7C1D462F4B9B7C1E46314BF1
:101A6C000B930A962F4B099308952E4B07930694CC
:101A7C002C4B059304902B4B03930291294B019310
:101A8C000092284B62462F49284808F0E1F903469A
:101A9C00FB60FB689AB264232449254803F027FDB8
:101AAC007FE01D4BDB7C9C461B4B1B7D1A461A4B67
:101ABC005B7D1946184B9B7D1846174BDB7D1C46EE
:101ACC00154B1B7E1D46144B5B7E1E46154B0B9314
:101ADC000A96144B09930895124B07930694114BD5
:101AEC00059304900F4B039302910E4B01930092BC
:101AFC000C4B624614490D4808F0AAF90346FB60EA
:101B0C00FB689AB264230949094803F0F0FC48E0E9
:101B1C00EC2300203400002000240020380000209A
:101B2C003C000020400000200CA8000828240020C5
:101B3C0088020020702300202C00002030000020A0
:101B4C0020A8000850A8000884A80008174B9B7E0A
:101B5C001D46164BDB7E1A46144B1B7F1946134B46
:101B6C005B7F1846114B9B7F1C46114B07930694C9
:101B7C000F4B059304900E4B039302910C4B019366
:101B8C0000920B4B2A460B490B4808F061F90346AF
:101B9C00FB60FB689AB264230749084803F0A7FC72
:101BAC0000BF00BF1437BD46F0BD00BF00240020AD
:101BBC0040000020B8A8000828240020880200203B
:101BCC0080B582B000AF424B1B78013B042B7AD816
:101BDC0001A252F823F000BFF91B0008291C0008D1
:101BEC005B1C0008831C0008AB1C00080023FB7165
:101BFC0009E0FB795A1CFB793549895C354AD1548B
:101C0C00FB790133FB71FB79042BF2D9FFF77EFED4
:101C1C00304B1B781A46304B9A6054E00023BB7152
:101C2C000AE0BB795A1CBB7905332949895C294ADE
:101C3C00D154BB790133BB71BB79062BF1D9FFF7BA
:101C4C0065FE244B5B791A46234BDA603BE000239C
:101C5C007B710AE07B795A1C7B790C331C49895CBB
:101C6C001C4AD1547B7901337B717B79062BF1D9DA
:101C7C00FFF74CFE27E000233B710AE03B795A1C2E
:101C8C003B7913331249895C124AD1543B790133A5
:101C9C003B713B79062BF1D9FFF738FE13E000239B
:101CAC00FB700AE0FB785A1CFB781A330849895CF4
:101CBC00084AD154FB780133FB70FB78062BF1D921
:101CCC00FFF724FE00BF00BF0837BD4680BD00BF34
:101CDC00EC230020002400207023002080B582B06B
:101CEC0002AF074B1A68074B1B781946064B00933B
:101CFC000B460649064808F0ABF800BFBD4680BD50
:101D0C000C000020F423002040000020DCA8000878
:101D1C002824002080B582B002AF0C4B1A680C4B03
:101D2C001B7819460B4B00930B460B490B4808F0DC
:101D3C008FF80A48FEF704FA03469AB2642307495F
:101D4C00074803F0D4FB00BFBD4680BD080000204F
:101D5C00F523002040000020DCA8000828240020E7
:101D6C008802002080B582B002AF0C4B1A680C4B75
:101D7C001B7819460B4B00930B460B490B4808F08C
:101D8C0067F80A48FEF7DCF903469AB26423074960
:101D9C00074803F0ACFB00BFBD4680BD140000201B
:101DAC00F623002040000020DCA800082824002096
:101DBC008802002080B582B002AF0C4B1A680C4B25
:101DCC001B7819460B4B00930B460B490B4808F03C
:101DDC003FF80A48FEF7B4F903469AB26423074960
:101DEC00074803F084FB00BFBD4680BD10000020F7
:101DFC00F623002040000020DCA800082824002046
:101E0C008802002080B582B000AF00237B6052E0D6
:101E1C007B68042B4BD801A252F823F03D1E00081E
:101E2C005D1E00087D1E00089D1E0008BB1E0008DC
:101E3C00254B1B78012B05D1244B31221A70FFF74F
:101E4C0091FF35E0214B30221A70FFF78BFF2FE00A
:101E5C001D4B5B78012B05D11C4B31221A70FFF7FF
:101E6C00A9FF25E0194B30221A70FFF7A3FF1FE0E2
:101E7C00154B9B78012B05D1154B31221A70FFF7AE
:101E8C0049FF15E0124B30221A70FFF743FF0FE0A9
:101E9C000D4BDB78012B05D10E4B31221A70FFF75D
:101EAC001DFF04E00B4B30221A70FFF717FF00BF29
:101EBC007B6801337B607B68072BA9DD00BF00BF0B
:101ECC000837BD4680BD00BFEC230020F623002060
:101EDC00F5230020F423002080B582B002AF114B13
:101EEC001A78114B1A70104B1B781A460F4B5A600C
:101EFC000F4B1A680C4B1B7819460E4B00930B4674
:101F0C000D490E4807F0A4FF0C48FEF719F90346DB
:101F1C009AB2642309490A4803F0E9FA00BFBD46A6
:101F2C0080BD00BFEC230020212400207023002062
:101F3C002400002040000020E4A8000828240020F1
:101F4C008802002080B582B002AF1A4B1B781A02AF
:101F5C00184B5B7819464FF47A7301FB03F31A4460
:101F6C00144B9B781B021344124AD27813441A4622
:101F7C00114B1A60104B1B68104AA2FB03239B09E0
:101F8C000D4A13600E4B1A680B4B1B680D490091E0
:101F9C000D490E4807F05CFF0C48FEF7D1F80346DC
:101FAC009AB2642309490A4803F0A1FA00BFBD465E
:101FBC0080BD00BFEC23002024240020D34D6210F0
:101FCC002800002040000020ECA800082824002055
:101FDC008802002080B582B002AF364B1A68364BAF
:101FEC00009301233549364807F032FF3448FEF799
:101FFC00A7F803469AB264233149324803F077FAC2
:10200C00314B9B78012B13D1304B1A682A4B009320
:10201C0001232A492A4807F01BFF2948FEF790F8AC
:10202C0003469AB264232649264803F060FA3DE041
:10203C00264B1A68204B009300232049204807F0B8
:10204C0007FF1F48FEF77CF803469AB264231C492D
:10205C001C4803F04CFA1C4B1B78012B13D11C4B66
:10206C001A68154B009301231449154807F0F0FE2C
:10207C001348FEF765F803469AB2642310491148D9
:10208C0003F035FA12E0124B1A680B4B0093002345
:10209C000A490B4807F0DCFE0948FEF751F80346E5
:1020AC009AB264230649074803F021FA00BFBD46E3
:1020BC0080BD00BF2000002040000020F4A80008D4
:1020CC0028240020880200205C2400201800002016
:1020DC001C00002080B582B000AF0346FB71FB7979
:1020EC00362B2FDC232B41DB233B132B3ED801A2B9
:1020FC0052F823F0672100087921000879210008A3
:10210C00792100085721000879210008792100085D
:10211C00792100087921000879210008792100082B
:10212C007921000879210008732100087921000821
:10213C00792100087921000879210008792100080B
:10214C0061210008502B0BD010E0FFF739FDFFF791
:10215C0041FF0BE0FFF73EFF08E0FFF753FE05E001
:10216C00FFF7BAFE02E0FFF7EDFE00BF00BF083735
:10217C00BD4680BDF0B5B7B01CAF7E4B1B78013BA4
:10218C00042B68D801A252F823F000BFAD2100083F
:10219C00D3210008F72100081B2200083F22000869
:1021AC0000237B660BE07B6E0133724AD15C724A72
:1021BC007B6E13440A461A707B6E01337B667B6E12
:1021CC00062BF0DD47E000233B660AE03B6E5A1C11
:1021DC003B6E05336749895C674AD1543B6E0133CA
:1021EC003B663B6E062BF1DD35E00023FB650AE018
:1021FC00FB6D5A1CFB6D0C335E49895C5E4AD154F5
:10220C00FB6D0133FB65FB6D062BF1DD23E0002339
:10221C00BB650AE0BB6D5A1CBB6D13335549895C19
:10222C00554AD154BB6D0133BB65BB6D062BF1DD3B
:10223C0011E000237B650AE07B6D5A1C7B6D1A3321
:10224C004C49895C4C4AD1547B6D01337B657B6D69
:10225C00052BF1DD00BF484B1B789C46464BDB78C9
:10226C009E46454B1B79FB64434B5B79BB64424BED
:10227C009B797B64404BDB793B643F4B1B7AFB6364
:10228C003D4B5B7ABB633C4B9B7A7B633A4BDB7A73
:10229C003B63394B1B7BFB62374B5B7BBB62364B27
:1022AC009B7B7B62344BDB7B3B62334B1B7CFB614C
:1022BC00314B5B7CBB61304B9B7C7B612E4BDB7C65
:1022CC003B612D4B1B7DFB602B4B5B7DBB602A4B1D
:1022DC009B7D7B60284BDB7D3B60274B1B7E1E462A
:1022EC00254B5B7E1D46244B9B7E1C46224BDB7E86
:1022FC001846214B1B7F19461F4B5B7F1A461E4B02
:10230C009B7F1A9319921891179016941595149601
:10231C003A6813927A681292BA681192FA6810921B
:10232C003A690F927A690E92BA690D92FA690C9217
:10233C003A6A0B927A6A0A92BA6A0992FA6A089213
:10234C003A6B07927A6B0692BA6B0592FA6B04920F
:10235C003A6C03927A6C0292BA6C0192FB6C009309
:10236C00734662460549064807F072FD00BF6C379C
:10237C00BD46F0BDEC23002064240020FCA800081E
:10238C002C25002080B584B002AF00237B600BE0CD
:10239C00124A7B6813441978114A7B6813440A4625
:1023AC001A707B6801337B607B68042BF0DD0C4B6F
:1023BC005B7819460A4B9B781846094BDB781A4612
:1023CC00074B1B790193009203460A4605490648C0
:1023DC0007F03EFD00BF0837BD4680BDEC23002052
:1023EC006424002058A900084400002080B500AFE8
:1023FC00064B1A78064B1A70054B1B781A46054982
:10240C00054807F025FD00BF80BD00BFEC23002070
:10241C006424002068A900086000002080B582B008
:10242C0000AF114B1B781A020F4B5B7819464FF417
:10243C007A7301FB03F31A440B4B9B781B02134476
:10244C00094AD27813447B607B68084AA2FB0323B9
:10245C009B097B607A680649064807F0F9FC00BFC7
:10246C000837BD4680BD00BFEC230020D34D621061
:10247C006CA900086C00002080B582B000AF034648
:10248C00FB71FB79502B0FD0502B13DC302B0ED063
:10249C00302B0FDC232B04D0272B0BD1FFF76AFE3C
:1024AC0008E0FFF76FFF05E0FFF7A0FF02E0FFF782
:1024BC00B5FF00BF00BF0837BD4680BD80B586B0F4
:1024CC0004AF00237B60194B1B883B800023BB703F
:1024DC0005233B7027237B702723BB700023FB70E5
:1024EC003A46134B0393134B0293134B0193134B29
:1024FC000093134B1349144807F0AAFC1248FDF73C
:10250C001FFE7860104B00221A707B689AB24FF451
:10251C00FA730D490D4802F0EAFFC82200210A485F
:10252C0007F08EFC00BF0837BD4680BD80A90008AF
:10253C00780000206C0000202C250020600000207A
:10254C004400002070A900089025002044020020BF
:10255C0080B500AF084B1B68074A43F010031360AB
:10256C00032000F0A9FE002000F008F8FEF792FE10
:10257C000023184680BD00BF0020024080B582B009
:10258C0000AF7860124B1A68124B1B7819464FF447
:10259C007A73B3FBF1F3B2FBF3F3184600F0C1FE10
:1025AC000346002B01D001230EE07B680F2B0AD8C9
:1025BC00002279684FF0FF3000F089FE064A7B68F4
:1025CC001360002300E0012318460837BD4680BD88
:1025DC0004000020800000207C00002080B400AFAC
:1025EC00054B1B781A46054B1B681344034A1360B2
:1025FC0000BFBD4680BC70478000002058260020DC
:10260C0080B400AF024B1B681846BD4680BC7047B7
:10261C005826002080B584B000AF7860FFF7F0FF3B
:10262C00B8607B68FB60FB68B3F1FF3F05D00A4BD9
:10263C001B781A46FB681344FB6000BFFFF7E0FFF2
:10264C000246BB68D31AFA689A42F7D800BF00BF9B
:10265C001037BD4680BD00BF8000002080B584B01F
:10266C0000AF78607B68002B01D10123EDE07B6823
:10267C0093F82030DBB2002B02D17868FEF73CFED9
:10268C007B681B681A687B681B6842F001021A6041
:10269C00FFF7B6FFF86012E0FFF7B2FF0246FB68E7
:1026AC00D31A0A2B0BD97B685B6A43F400327B6824
:1026BC005A627B68052283F820200123C5E07B68E1
:1026CC001B685B6803F00103002BE5D07B681B687B
:1026DC001A687B681B6822F002021A60FFF790FFF1
:1026EC00F86012E0FFF78CFF0246FB68D31A0A2B46
:1026FC000BD97B685B6A43F400327B685A627B6857
:10270C00052283F8202001239FE07B681B685B680F
:10271C0003F00203002BE5D17B681B7E012B08D153
:10272C007B681B681A687B681B6842F080021A6021
:10273C0007E07B681B681A687B681B6822F08002C4
:10274C001A607B685B7E012B08D17B681B681A685A
:10275C007B681B6842F040021A6007E07B681B68CC
:10276C001A687B681B6822F040021A607B689B7EAB
:10277C00012B08D17B681B681A687B681B6842F0C8
:10278C0020021A6007E07B681B681A687B681B686C
:10279C0022F020021A607B68DB7E012B08D17B685B
:1027AC001B681A687B681B6822F010021A6007E02D
:1027BC007B681B681A687B681B6842F010021A6001
:1027CC007B681B7F012B08D17B681B681A687B68B0
:1027DC001B6842F008021A6007E07B681B681A68E5
:1027EC007B681B6822F008021A607B685B7F012BF8
:1027FC0008D17B681B681A687B681B6842F004026E
:10280C001A6007E07B681B681A687B681B6822F0FB
:10281C0004021A607B689A687B68DB681A437B68E1
:10282C001B691A437B685B6942EA03017B685B683E
:10283C005A1E7B681B680A43DA617B6800225A6265
:10284C007B68012283F82020002318461037BD46F0
:10285C0080BD80B487B000AF786039607B681B683E
:10286C007B617B6893F82030FB74FB7C012B03D0DD
:10287C00FB7C022B40F0AA807B69D3F8003243F03A
:10288C0001027B69C3F800223B685B6903F01F03FC
:10289C00012202FA03F3FB607B69D3F81C22FB686C
:1028AC00DB431A407B69C3F81C223B68DB69002BB5
:1028BC0023D17B69D3F80C22FB68DB431A407B697C
:1028CC00C3F80C223B68DB6819043B685B689BB25D
:1028DC003A68526919437B69483243F832103B68B5
:1028EC009B6819043B681B689AB23B685B690A4396
:1028FC0079694833DB000B445A603B68DB69012B78
:10290C0022D17B69D3F80C22FB681A437B69C3F88C
:10291C000C223B681B6819043B685B689BB23A68E5
:10292C00526919437B69483243F832103B689B6803
:10293C0019043B68DB689AB23B685B690A437969A6
:10294C004833DB000B445A603B689B69002B09D170
:10295C007B69D3F80422FB68DB431A407B69C3F81C
:10296C00042207E07B69D3F80422FB681A437B69D5
:10297C00C3F804223B681B69002B09D17B69D3F88F
:10298C001422FB68DB431A407B69C3F8142207E06E
:10299C007B69D3F81422FB681A437B69C3F81422B1
:1029AC003B681B6A012B07D17B69D3F81C22FB689F
:1029BC001A437B69C3F81C227B69D3F8003223F0DD
:1029CC0001027B69C3F80022002306E07B685B6A86
:1029DC0043F480227B685A62012318461C37BD469B
:1029EC0080BC704780B584B000AF78607B6893F88A
:1029FC002030DBB2012B2ED17B68022283F8202001
:102A0C007B681B681A687B681B6822F001021A60DD
:102A1C00FFF7F6FDF86012E0FFF7F2FD0246FB68E7
:102A2C00D31A0A2B0BD97B685B6A43F400327B68A0
:102A3C005A627B68052283F82020012312E07B6810
:102A4C001B685B6803F00103002BE5D17B68002257
:102A5C005A62002306E07B685B6A43F400227B68C1
:102A6C005A62012318461037BD4680BD80B487B02A
:102A7C0000AFF860B9607A603B60FB6893F8203077
:102A8C00FB75FB7D012B03D0FB7D022B40F0F3800B
:102A9C00BB68002B0ED1FB681B68DB6803F00303DB
:102AAC00002B16D1FB685B6A43F40012FB685A6278
:102ABC000123E7E0FB681B681B6903F00303002B91
:102ACC0007D1FB685B6A43F40012FB685A6201236E
:102ADC00D8E0FB681A68BB681B331B0113441B68E6
:102AEC0003F004027B689A607B689B68002B0CD116
:102AFC00FB681A68BB681B331B0113441B685B0D16
:102B0C00C3F30A027B681A600BE0FB681A68BB68A7
:102B1C001B331B0113441B68DB0823F060427B68EA
:102B2C005A60FB681A68BB681B331B0113441B6893
:102B3C0003F002027B68DA60FB681A68BB681B331F
:102B4C001B01134404331B6803F00F027B681A61EA
:102B5C00FB681A68BB681B331B01134404331B68E6
:102B6C001B0ADAB27B689A61FB681A68BB681B3374
:102B7C001B01134404331B681B0C9AB27B685A610B
:102B8C00FB681A68BB681B01134403F5DC731B68F4
:102B9C00DAB23B681A70FB681A68BB681B011344F5
:102BAC0003F5DC731B681A0A3B680133D2B21A7046
:102BBC00FB681A68BB681B01134403F5DC731B68C4
:102BCC001A0C3B680233D2B21A70FB681A68BB68E5
:102BDC001B01134403F5DC731B681A0E3B680333AB
:102BEC00D2B21A70FB681A68BB681B01134403F558
:102BFC00DE731A683B680433D2B21A70FB681A6829
:102C0C00BB681B01134403F5DE731B681A0A3B688F
:102C1C000533D2B21A70FB681A68BB681B011344E7
:102C2C0003F5DE731B681A0C3B680633D2B21A70BC
:102C3C00FB681A68BB681B01134403F5DE731B6841
:102C4C001A0E3B680733D2B21A70BB68002B08D13E
:102C5C00FB681B68DA68FB681B6842F02002DA60CC
:102C6C0007E0FB681B681A69FB681B6842F02002CE
:102C7C001A61002306E0FB685B6A43F48022FB6860
:102C8C005A62012318461C37BD4680BC704780B47D
:102C9C0085B000AF786039607B6893F82030FB73A7
:102CAC00FB7B012B02D0FB7B022B09D17B681B68C1
:102CBC0059697B681B683A680A435A61002306E02D
:102CCC007B685B6A43F480227B685A620123184656
:102CDC001437BD4680BC704780B58AB000AF7860B1
:102CEC0000237B627B681B685B693B627B681B68AB
:102CFC005B68FB617B681B689B68BB617B681B68BE
:102D0C00DB687B617B681B681B693B617B681B68AC
:102D1C009B69FB603B6A03F00103002B7CD0BB6911
:102D2C0003F00103002B23D07B681B6801229A60FF
:102D3C00BB6903F00203002B03D0786800F083F921
:102D4C0016E0BB6903F00403002B04D07B6A43F448
:102D5C0000637B620CE0BB6903F00803002B04D01A
:102D6C007B6A43F480537B6202E0786800F086F95A
:102D7C00BB6903F48073002B24D07B681B684FF471
:102D8C0080729A60BB6903F40073002B03D07868DF
:102D9C0000F062F916E0BB6903F48063002B04D0E9
:102DAC007B6A43F400537B620CE0BB6903F4006361
:102DBC00002B04D07B6A43F480437B6202E078688A
:102DCC0000F065F9BB6903F48033002B24D07B68D9
:102DDC001B684FF480329A60BB6903F40033002BFC
:102DEC0003D0786800F041F916E0BB6903F4802346
:102DFC00002B04D07B6A43F400437B620CE0BB697C
:102E0C0003F40023002B04D07B6A43F480337B62F1
:102E1C0002E0786800F044F93B6A03F00803002BE9
:102E2C000CD07B6903F01003002B07D07B6A43F4B2
:102E3C0000737B627B681B681022DA603B6A03F0CC
:102E4C000403002B0BD07B6903F00803002B06D086
:102E5C007B681B680822DA60786800F02AF93B6A04
:102E6C0003F00203002B09D07B681B68DB6803F0BE
:102E7C000303002B02D07868FEF70CFD3B6A03F0CD
:102E8C004003002B0CD03B6903F01003002B07D040
:102E9C007B6A43F480637B627B681B6810221A6137
:102EAC003B6A03F02003002B0BD03B6903F00803B3
:102EBC00002B06D07B681B6808221A61786800F02A
:102ECC000AF93B6A03F01003002B09D07B681B68DE
:102EDC001B6903F00303002B02D0786800F0F2F8B2
:102EEC003B6A03F40033002B0BD0FB6903F0100397
:102EFC00002B06D07B681B6810225A60786800F0A3
:102F0C00F3F83B6A03F48033002B0BD0FB6903F01E
:102F1C000803002B06D07B681B6808225A6078686F
:102F2C0000F0EBF83B6A03F40043002B7BD0FB6909
:102F3C0003F00403002B72D03B6A03F48073002B64
:102F4C0008D0FB6803F00103002B03D07B6A43F02D
:102F5C0001037B623B6A03F40073002B08D0FB680F
:102F6C0003F00203002B03D07B6A43F002037B6265
:102F7C003B6A03F48063002B08D0FB6803F0040366
:102F8C00002B03D07B6A43F004037B623B6A03F49F
:102F9C000063002B43D0FB6803F07003002B3ED082
:102FAC00FB6803F07003602B2BD0602B2ED8502BBA
:102FBC0022D0502B2AD8402B19D0402B26D8302B7E
:102FCC0010D0302B22D8102B02D0202B05D01DE096
:102FDC007B6A43F008037B6219E07B6A43F01003C1
:102FEC007B6214E07B6A43F020037B620FE07B6A18
:102FFC0043F040037B620AE07B6A43F080037B6210
:10300C0005E07B6A43F480737B6200E000BF7B6861
:10301C001B689A697B681B6822F070029A617B6856
:10302C001B6804225A607B6A002B08D07B685A6AA2
:10303C007B6A1A437B685A62786800F067F800BFB5
:10304C002837BD4680BD80B483B000AF786000BF28
:10305C000C37BD4680BC704780B483B000AF78603D
:10306C0000BF0C37BD4680BC704780B483B000AF46
:10307C00786000BF0C37BD4680BC704780B483B00D
:10308C0000AF786000BF0C37BD4680BC704780B481
:10309C0083B000AF786000BF0C37BD4680BC704772
:1030AC0080B483B000AF786000BF0C37BD4680BCE5
:1030BC00704780B483B000AF786000BF0C37BD465A
:1030CC0080BC704780B483B000AF786000BF0C3711
:1030DC00BD4680BC704780B483B000AF786000BF41
:1030EC000C37BD4680BC704780B483B000AF7860AD
:1030FC0000BF0C37BD4680BC704780B483B000AFB6
:10310C00786000BF0C37BD4680BC704780B483B07C
:10311C0000AF786000BF0C37BD4680BC7047000024
:10312C0080B485B000AF78607B6803F00703FB6068
:10313C000C4BDB68BB60BA684FF6FF031340BB60F7
:10314C00FB681A02BB68134343F0BF6343F40033BC
:10315C00BB60044ABB68D36000BF1437BD4680BC5B
:10316C00704700BF00ED00E080B400AF044BDB689B
:10317C001B0A03F007031846BD4680BC704700BF0E
:10318C0000ED00E080B483B000AF0346FB7197F90B
:10319C000730002B0BDBFB7903F01F02064997F974
:1031AC0007305B09012000FA02F241F8232000BF2E
:1031BC000C37BD4680BC704700E100E080B483B0A2
:1031CC0000AF03463960FB7197F90730002B0ADB1F
:1031DC003B68DAB20C4997F907301201D2B20B44B2
:1031EC0083F800230AE03B68DAB20849FB7903F064
:1031FC000F03043B1201D2B20B441A7600BF0C37FA
:10320C00BD4680BC704700BF00E100E000ED00E06F
:10321C0080B489B000AFF860B9607A60FB6803F0E5
:10322C000703FB61FB69C3F10703042B28BF0423CD
:10323C00BB61FB690433062B02D9FB69033B00E03D
:10324C0000237B614FF0FF32BB6902FA03F3DA43D0
:10325C00BB681A407B699A404FF0FF317B6901FAD9
:10326C0003F3D9437B680B40134318462437BD4600
:10327C0080BC704780B582B000AF78607B68013B42
:10328C00B3F1807F01D301230FE00A4A7B68013B35
:10329C0053600F214FF0FF30FFF790FF054B0022DA
:1032AC009A60044B07221A60002318460837BD4663
:1032BC0080BD00BF10E000E080B582B000AF786048
:1032CC007868FFF72DFF00BF0837BD4680BD80B57D
:1032DC0086B000AF0346B9607A60FB7300237B6154
:1032EC00FFF742FF78617A68B9687869FFF790FF59
:1032FC00024697F90F3011461846FFF75FFF00BFE3
:10330C001837BD4680BD80B582B000AF0346FB7157
:10331C0097F907301846FFF735FF00BF0837BD4651
:10332C0080BD80B582B000AF78607868FFF7A2FFEF
:10333C00034618460837BD4680BD80B485B000AF43
:10334C0078600023FB737B6893F82130022B08D044
:10335C007B6804229A637B68002283F82020012377
:10336C0020E07B681B681A687B681B6822F00E02E1
:10337C001A607B681B681A687B681B6822F0010264
:10338C001A607B681A6C7B68DB6B012101FA02F214
:10339C005A607B68012283F821207B68002283F825
:1033AC002020FB7B18461437BD4680BC70470000BC
:1033BC0080B584B000AF78600023FB737B6893F812
:1033CC002130022B05D07B6804229A630123FB7306
:1033DC0051E07B681B681A687B681B6822F00E0240
:1033EC001A607B681B681A687B681B6822F00102F4
:1033FC001A607B681B68224A934229D07B681B6841
:10340C00204A934222D07B681B681F4A93421AD0F1
:10341C007B681B681D4A934212D07B681B681C4A50
:10342C0093420AD07B681B681A4A934202D14FF42C
:10343C0080130EE04FF080730BE04FF4803308E004
:10344C004FF4805305E04FF4807302E0102300E04A
:10345C000123114A53607B68012283F821207B6889
:10346C00002283F820207B685B6B002B03D07B68E9
:10347C005B6B78689847FB7B18461037BD4680BD60
:10348C00080002401C000240300002404400024090
:10349C00580002406C00024000000240F0B587B0BA
:1034AC0000AFF860B960C7E900230123FB75002366
:1034BC00BB7500237B752F4B1B7E012B01D1022387
:1034CC0054E02C4B01221A764CF2503000F0B2F83A
:1034DC000346FB75FB7D002B44D1FB68012B02D10D
:1034EC0001237B7507E0FB68022B02D102237B755D
:1034FC0001E004237B750023BB752DE0BB7D5A00D6
:10350C00BB6802EB030CBB7D1901D7E90023C1F1A9
:10351C002006A1F1200022FA01F403FA06F6344346
:10352C0023FA00F0044323FA01F5A3B219466046CE
:10353C0000F064F84CF2503000F07CF80346FB7558
:10354C000D4B1B690C4A23F001031361FB7D002B0F
:10355C0007D1BB7D0133BB75BA7D7B7D9A42CDD340
:10356C0000E000BF034B00221A76FB7D18461C3787
:10357C00BD46F0BD602600200020024080B483B020
:10358C0000AF0023FB710D4B1B6903F08003002B74
:10359C000DD00A4B0A4A5A60084B0A4A5A60074B2C
:1035AC001B6903F08003002B01D00123FB71FB7915
:1035BC0018460C37BD4680BC704700BF0020024047
:1035CC0023016745AB89EFCD80B400AF054B1B6978
:1035DC00044A43F08003136100231846BD4680BCA7
:1035EC00704700BF0020024080B400AF024BDB6983
:1035FC001846BD4680BC70476026002080B483B05E
:10360C0000AF78600B467B80084B0022DA61084BD8
:10361C001B69074A43F0010313617B687A881A809F
:10362C0000BF0C37BD4680BC704700BF6026002031
:10363C000020024080B584B000AF7860FEF7E0FF58
:10364C00F86010E07B68B3F1FF3F0CD07B68002B77
:10365C0007D0FEF7D5FF0246FB68D31A7A689A4268
:10366C0001D2032325E0154BDB6803F00103002B8B
:10367C00E8D1124BDB6803F02003002B02D00F4B78
:10368C002022DA600D4BDB6803F01003002B0BD10A
:10369C000A4BDB6903F00103002B05D1074BDB68F8
:1036AC0003F00403002B03D000F00AF8012300E020
:1036BC00002318461037BD4680BD00BF00200240D5
:1036CC0080B483B000AF00237B60234BDB6803F036
:1036DC001003002B09D0214BDB6943F002031F4A76
:1036EC00D3617B6843F010037B601B4BDB6803F0FA
:1036FC000403002B09D0194BDB6943F00103174A73
:10370C00D3617B6843F004037B60134BDB6903F0EC
:10371C000103002B0BD0114BDB6943F004030F4A60
:10372C00D3610D4BDB690C4A23F00103D3617B6839
:10373C0040F20112934206D1074BDB69064A23F093
:10374C000103D36102E0044A7B68D36000BF0C37ED
:10375C00BD4680BC704700BF0020024060260020A0
:10376C0080B584B000AF786039600123FB7300230F
:10377C00BB602F4B1B7E012B01D1022353E02C4B42
:10378C0001221A767B681B68022B16D14CF2503042
:10379C00FFF750FF0346002B41D1012000F04CF8FD
:1037AC004CF25030FFF746FF0346FB73214B1B696D
:1037BC00204A23F00403136131E04CF25030FFF740
:1037CC0039FF0346002B2AD13B684FF0FF321A60B9
:1037DC007B689B68BB6019E0B86800F049F84CF254
:1037EC005030FFF727FF0346FB73124B1B69114A3E
:1037FC0023F002031361FB7B002B03D03B68BA68F8
:10380C001A600CE0BB6803F58063BB607B68DB6807
:10381C009A027B689B681344BA689A42DCD3044BC7
:10382C0000221A76FB7B18461037BD4680BD00BFC0
:10383C00602600200020024080B483B000AF786086
:10384C00094B0022DA61094B1B69084A43F0040357
:10385C001361064B1B69054A43F04003136100BF1B
:10386C000C37BD4680BC704760260020002002400B
:10387C0080B483B000AF78600B4B0022DA610B4B45
:10388C001B690A4A43F002031361084A7B685361BF
:10389C00064B1B69054A43F04003136100BF0C370C
:1038AC00BD4680BC704700BF60260020002002404F
:1038BC0080B48BB000AF7860396000237B6200234A
:1038CC003B6269E101227B6A02FA03F3FB613B680C
:1038DC001B68FA691340BB61BA69FB699A4240F0F4
:1038EC0058813B685B689A4A93425ED0984A9342EF
:1038FC0075D8984A934258D0964A93426FD8964AB4
:10390C00934252D0944A934269D8944A93424CD0F1
:10391C00924A934263D8924A934246D0904A934239
:10392C005DD8122B2AD8122B59D801A252F823F0A9
:10393C00B739000891390008A3390008E5390008A7
:10394C00EB390008EB390008EB390008EB390008BB
:10395C00EB390008EB390008EB390008EB390008AB
:10396C00EB390008EB390008EB390008EB3900089B
:10397C00EB39000899390008AD390008794A9342AF
:10398C0013D02CE03B68DB683B6229E03B68DB68CA
:10399C0004333B6224E03B68DB6808333B621FE086
:1039AC003B68DB680C333B621AE03B689B68002B7E
:1039BC0002D104233B6213E03B689B68012B05D1C9
:1039CC0008233B627B68FA691A6109E008233B62B1
:1039DC007B68FA695A6103E000233B6200E000BF98
:1039EC00BB69FF2B01D87B6801E07B6804337B61EA
:1039FC00BB69FF2B02D87B6A9B0002E07B6A083B09
:103A0C009B003B617B691A680F213B6901FA03F348
:103A1C00DB431A40396A3B6901FA03F31A437B69A9
:103A2C001A603B685B6803F08053002B00F0B18098
:103A3C004D4B9B694C4A43F0010393614A4B9B6984
:103A4C0003F00103BB60BB68484A7B6A9B080233E6
:103A5C0052F82330FB607B6A03F003039B000F22B8
:103A6C0002FA03F3DB43FA681340FB607B68404ABD
:103A7C00934213D07B683F4A93420DD07B683E4AF9
:103A8C00934207D07B683D4A934201D1032306E061
:103A9C00042304E0022302E0012300E000237A6AFD
:103AAC0002F0030292009340FA681343FB602F4923
:103ABC007B6A9B080233FA6841F823203B685B68F9
:103ACC0003F48033002B06D02D4B1A682C49BB69AC
:103ADC0013430B6006E02A4B1A68BB69DB43284989
:103AEC0013400B603B685B6803F40033002B06D07B
:103AFC00234B5A682249BB6913434B6006E0204BA9
:103B0C005A68BB69DB431E4913404B603B685B68DA
:103B1C0003F48013002B06D0194B9A681849BB6923
:103B2C0013438B6006E0164B9A68BB69DB43144960
:103B3C0013408B603B685B6803F40013002B21D0AF
:103B4C000F4BDA680E49BB691343CB6021E000BF11
:103B5C000000321000003110000022100000211073
:103B6C000000121000001110001002400000014073
:103B7C0000080140000C01400010014000140140FD
:103B8C00000401400B4BDA68BB69DB430949134065
:103B9C00CB607B6A01337B623B681A687B6A22FAD2
:103BAC0003F3002B7FF48EAE00BF00BF2C37BD4655
:103BBC0080BC70470004014080B483B000AF7860D3
:103BCC000B467B8013467B707B78002B03D07A8866
:103BDC007B681A6103E07B881A047B681A6100BF5A
:103BEC000C37BD4680BC704780B485B000AF7860A0
:103BFC000B467B807B68DB68FB607A88FB68134034
:103C0C001A04FB68D9437B880B401A437B681A6102
:103C1C0000BF1437BD4680BC7047000080B586B02D
:103C2C0000AF78607B68002B01D1012372E27B68C6
:103C3C001B6803F00103002B00F08780924B5B683C
:103C4C0003F00C03042B0CD08F4B5B6803F00C03BC
:103C5C00082B12D18C4B5B6803F48033B3F5803F97
:103C6C000BD1894B1B6803F40033002B6CD07B68A1
:103C7C005B68002B68D101234CE27B685B68B3F571
:103C8C00803F06D1804B1B687F4A43F4803313601E
:103C9C002EE07B685B68002B0CD17B4B1B687A4A4F
:103CAC0023F480331360784B1B68774A23F480230A
:103CBC0013601DE07B685B68B3F5A02F0CD1724BD1
:103CCC001B68714A43F4802313606F4B1B686E4A68
:103CDC0043F4803313600BE06B4B1B686A4A23F48C
:103CEC0080331360684B1B68674A23F4802313608E
:103CFC007B685B68002B13D0FEF782FC386108E010
:103D0C00FEF77EFC02463B69D31A642B01D90323D0
:103D1C0000E25D4B1B6803F40033002BF0D014E081
:103D2C00FEF76EFC386108E0FEF76AFC02463B6960
:103D3C00D31A642B01D90323ECE1534B1B6803F416
:103D4C000033002BF0D100E000BF7B681B6803F050
:103D5C000203002B63D04C4B5B6803F00C03002B6D
:103D6C000BD0494B5B6803F00C03082B1CD1464B62
:103D7C005B6803F48033002B16D1434B1B6803F0B4
:103D8C000203002B05D07B681B69012B01D001239A
:103D9C00C0E13D4B1B6823F0F8027B685B69DB00DC
:103DAC00394913430B603AE07B681B69002B20D028
:103DBC00364B01221A60FEF723FC386108E0FEF74F
:103DCC001FFC02463B69D31A022B01D90323A1E144
:103DDC002D4B1B6803F00203002BF0D02A4B1B6801
:103DEC0023F0F8027B685B69DB00274913430B6007
:103DFC0015E0264B00221A60FEF702FC386108E041
:103E0C00FEF7FEFB02463B69D31A022B01D90323B2
:103E1C0080E11D4B1B6803F00203002BF0D17B6883
:103E2C001B6803F00803002B3AD07B689B69002BBE
:103E3C0019D0174B01221A60FEF7E2FB386108E03B
:103E4C00FEF7DEFB02463B69D31A022B01D9032392
:103E5C0060E10D4B5B6A03F00203002BF0D00120F4
:103E6C0000F0D8FA1CE00A4B00221A60FEF7C8FBDF
:103E7C0038610FE0FEF7C4FB02463B69D31A022BF4
:103E8C0008D9032346E100BF001002400000424263
:103E9C0080044242924B5B6A03F00203002BE9D18F
:103EAC007B681B6803F00403002B00F0A680002342
:103EBC00FB758B4BDB6903F08053002B0DD1884BCA
:103ECC00DB69874A43F08053D361854BDB6903F090
:103EDC008053BB60BB680123FB75824B1B6803F4EA
:103EEC008073002B18D17F4B1B687E4A43F4807380
:103EFC001360FEF785FB386108E0FEF781FB024694
:103F0C003B69D31A642B01D9032303E1754B1B685E
:103F1C0003F48073002BF0D07B68DB68012B06D197
:103F2C006F4B1B6A6E4A43F0010313622DE07B68F2
:103F3C00DB68002B0CD16A4B1B6A694A23F0010326
:103F4C001362674B1B6A664A23F0040313621CE07E
:103F5C007B68DB68052B0CD1614B1B6A604A43F014
:103F6C00040313625E4B1B6A5D4A43F00103136248
:103F7C000BE05B4B1B6A5A4A23F001031362584B4C
:103F8C001B6A574A23F0040313627B68DB68002B1F
:103F9C0015D0FEF735FB38610AE0FEF731FB02461F
:103FAC003B69D31A41F28832934201D90323B1E021
:103FBC004B4B1B6A03F00203002BEED014E0FEF710
:103FCC001FFB38610AE0FEF71BFB02463B69D31A64
:103FDC0041F28832934201D903239BE0404B1B6A88
:103FEC0003F00203002BEED1FB7D012B05D13C4BE2
:103FFC00DB693B4A23F08053D3617B68DB69002B80
:10400C0000F08780364B5B6803F00C03082B61D003
:10401C007B68DB69022B46D1334B00221A60FEF71A
:10402C00EFFA386108E0FEF7EBFA02463B69D31A67
:10403C00022B01D903236DE0294B1B6803F000739D
:10404C00002BF0D17B681B6AB3F5803F08D1244B61
:10405C005B6823F400327B689B68214913434B60F7
:10406C001F4B5B6823F474127B68196A7B685B6A6C
:10407C000B431B4913434B601B4B01221A60FEF789
:10408C00BFFA386108E0FEF7BBFA02463B69D31A67
:10409C00022B01D903233DE0114B1B6803F0007385
:1040AC00002BF0D035E0104B00221A60FEF7A8FA76
:1040BC00386108E0FEF7A4FA02463B69D31A022BDA
:1040CC0001D9032326E0064B1B6803F00073002B79
:1040DC00F0D11EE07B68DB69012B07D1012319E0CD
:1040EC000010024000700040600042420B4B5B68C5
:1040FC00FB60FB6803F480327B681B6A9A4206D132
:10410C00FB6803F470127B685B6A9A4201D001234E
:10411C0000E0002318461837BD4680BD0010024051
:10412C0080B584B000AF786039607B68002B01D11A
:10413C000123D0E06A4B1B6803F007033A689A42EC
:10414C0010D9674B1B6823F0070265493B68134382
:10415C000B60634B1B6803F007033A689A4201D06B
:10416C000123B8E07B681B6803F00203002B20D00E
:10417C007B681B6803F00403002B05D0594B5B686C
:10418C00584A43F4E06353607B681B6803F00803F0
:10419C00002B05D0534B5B68524A43F46053536079
:1041AC00504B5B6823F0F0027B689B684D491343CE
:1041BC004B607B681B6803F00103002B40D07B68CD
:1041CC005B68012B07D1474B1B6803F40033002BB2
:1041DC0015D101237FE07B685B68022B07D1414B33
:1041EC001B6803F00073002B09D1012373E03D4BD6
:1041FC001B6803F00203002B01D101236BE0394B48
:10420C005B6823F003027B685B68364913434B60A1
:10421C00FEF7F6F9F8600AE0FEF7F2F90246FB68E1
:10422C00D31A41F28832934201D9032353E02D4B28
:10423C005B6803F00C027B685B689B009A42EBD1D5
:10424C00274B1B6803F007033A689A4210D2244BA1
:10425C001B6823F0070222493B6813430B60204B79
:10426C001B6803F007033A689A4201D0012332E03D
:10427C007B681B6803F00403002B08D0194B5B68A8
:10428C0023F4E0627B68DB68164913434B607B6860
:10429C001B6803F00803002B09D0124B5B6823F456
:1042AC0060527B681B69DB000E4913434B6000F0C6
:1042BC0021F802460B4B5B681B0903F00F030A49FC
:1042CC00CB5C22FA03F3094A1360094B1B681846AE
:1042DC00FEF754F9002318461037BD4680BD00BFC9
:1042EC000020024000100240DCA90008040000205D
:1042FC007C00002090B48AB000AF294B3C1D0FCB42
:10430C0084E80F0040F201233B800023FB61002373
:10431C00BB6100237B6200237B6100233B62214B4A
:10432C005B68FB61FB6903F00C03042B02D0082BC8
:10433C0003D02BE01C4B3B622BE0FB699B0C03F086
:10434C000F0328333B4413F8243C7B61FB6903F4D3
:10435C008033002B12D0134B5B685B0C03F0010312
:10436C0028333B4413F8283CBB617B690E4A03FBA2
:10437C0002F2BB69B2FBF3F37B6204E07B690B4A8C
:10438C0002FB03F37B627B6A3B6202E0064B3B62FF
:10439C0000BF3B6A18462837BD4690BC704700BF2B
:1043AC0084A900080010024000127A0000093D00A8
:1043BC0080B400AF024B1B681846BD4680BC7047EA
:1043CC000400002080B500AFFFF7F2FF0246054B5A
:1043DC005B681B0A03F007030349CB5C22FA03F367
:1043EC00184680BD00100240ECA9000880B500AF53
:1043FC00FFF7DEFF0246054B5B68DB0A03F00703A1
:10440C000349CB5C22FA03F3184680BD001002402E
:10441C00ECA9000880B485B000AF78600A4B1B682B
:10442C000A4AA2FB03235B0A7A6802FB03F3FB60D4
:10443C0000BFFB685A1EFA60002BF9D100BF00BF09
:10444C001437BD4680BC704704000020D34D621069
:10445C0080B582B000AF78607B68002B01D101235E
:10446C0076E07B685B6A002B08D17B685B68B3F5F0
:10447C00827F09D07B680022DA6105E07B6800222C
:10448C001A617B6800225A617B6800229A627B6801
:10449C0093F85130DBB2002B06D17B68002283F8F5
:1044AC0050207868FCF77CFF7B68022283F851204F
:1044BC007B681B681A687B681B6822F040021A60D4
:1044CC007B685B6803F482727B689B6803F404432B
:1044DC001A437B68DB6803F400631A437B681B692F
:1044EC0003F002031A437B685B6903F001031A4370
:1044FC007B689B6903F400731A437B68DB6903F0E8
:10450C0038031A437B681B6A03F0800342EA0301F9
:10451C007B689B6A03F400527B681B680A431A6031
:10452C007B689B691A0C7B681B6802F004025A605A
:10453C007B681B68DA697B681B6822F40062DA61AD
:10454C007B6800225A657B68012283F85120002386
:10455C0018460837BD4680BD80B588B000AFF860FE
:10456C00B9603B601346FB800023FB77FB6893F834
:10457C005030012B01D1022326E1FB68012283F884
:10458C005020FEF73DF8B861FB88FB82FB6893F87E
:10459C005130DBB2012B02D00223FB770BE1BB685D
:1045AC00002B02D0FB88002B02D10123FB7702E108
:1045BC00FB68032283F85120FB6800225A65FB68D4
:1045CC00BA681A63FB68FA889A86FB68FA88DA86F6
:1045DC00FB6800229A63FB6800229A87FB68002222
:1045EC00DA87FB6800225A64FB6800221A64FB68B5
:1045FC009B68B3F5004F0FD1FB681B681A68FB680A
:10460C001B6822F040021A60FB681B681A68FB6882
:10461C001B6842F480421A60FB681B681B6803F03D
:10462C004003402B07D0FB681B681A68FB681B68AB
:10463C0042F040021A60FB68DB68B3F5006F4BD1A7
:10464C00FB685B68002B02D0FB8A012B3ED1FB6818
:10465C001B6B1A88FB681B68DA60FB681B6B9A1C67
:10466C00FB681A63FB68DB8E9BB2013B9AB2FB685A
:10467C00DA862BE0FB681B689B6803F00203022BB5
:10468C0012D1FB681B6B1A88FB681B68DA60FB682D
:10469C001B6B9A1CFB681A63FB68DB8E9BB2013B9D
:1046AC009AB2FB68DA8611E0FDF7AAFF0246BB69F5
:1046BC00D31A3A689A4203D83B68B3F1FF3F02D150
:1046CC003B68002B02D10323FB7774E0FB68DB8E85
:1046DC009BB2002BCED14CE0FB685B68002B02D068
:1046EC00FB8A012B40D1FB681A6BFB681B680C33EF
:1046FC0012781A70FB681B6B5A1CFB681A63FB68F8
:10470C00DB8E9BB2013B9AB2FB68DA862CE0FB682D
:10471C001B689B6803F00203022B13D1FB681A6B16
:10472C00FB681B680C3312781A70FB681B6B5A1CE5
:10473C00FB681A63FB68DB8E9BB2013B9AB2FB6889
:10474C00DA8611E0FDF75CFF0246BB69D31A3A68C2
:10475C009A4203D83B68B3F1FF3F02D13B68002B70
:10476C0002D10323FB7726E0FB68DB8E9BB2002B88
:10477C00CDD1BA693968F86800F054FA0346002BB9
:10478C0002D0FB6820225A65FB689B68002B0AD17B
:10479C0000233B61FB681B68DB683B61FB681B68A3
:1047AC009B683B613B69FB685B6D002B02D001236E
:1047BC00FB7700E000BFFB68012283F85120FB6807
:1047CC00002283F85020FB7F18462037BD4680BD61
:1047DC0080B58CB000AFF860B9607A607B80012343
:1047EC00FB62002387F82B30FB6893F85030012BC9
:1047FC0001D102238AE1FB68012283F85020FDF7E6
:10480C00FFFE7862FB6893F8513087F82330FB6821
:10481C005B68FB617B887B8397F82330012B0FD07F
:10482C00FB69B3F5827F07D1FB689B68002B03D132
:10483C0097F82330042B03D0022387F82B305BE14D
:10484C00BB68002B05D07B68002B02D07B88002B2B
:10485C0003D1012387F82B304EE1FB6893F85130DC
:10486C00DBB2042B03D0FB68052283F85120FB68D4
:10487C0000225A65FB687A689A63FB687A88DA8743
:10488C00FB687A889A87FB68BA681A63FB687A882F
:10489C00DA86FB687A889A86FB6800221A64FB68C1
:1048AC0000225A64FB681B681B6803F04003402B12
:1048BC0007D0FB681B681A68FB681B6842F0400253
:1048CC001A60FB68DB68B3F5006F78D1FB685B6836
:1048DC00002B02D07B8B012B66D1FB681B6B1A88DB
:1048EC00FB681B68DA60FB681B6B9A1CFB681A631D
:1048FC00FB68DB8E9BB2013B9AB2FB68DA8653E015
:10490C00FB681B689B6803F00203022B1BD1FB683E
:10491C00DB8E9BB2002B16D0FB6A012B13D1FB68EC
:10492C001B6B1A88FB681B68DA60FB681B6B9A1C94
:10493C00FB681A63FB68DB8E9BB2013B9AB2FB6887
:10494C00DA860023FB62FB681B689B6803F001039B
:10495C00012B19D1FB68DB8F9BB2002B14D0FB68A9
:10496C001B68DA68FB689B6B92B21A80FB689B6BC6
:10497C009A1CFB689A63FB68DB8F9BB2013B9AB273
:10498C00FB68DA870123FB62FDF73AFE02467B6A7D
:10499C00D31ABA6B9A4207D8BB6BB3F1FF3F03D063
:1049AC00032387F82B30A7E0FB68DB8E9BB2002B30
:1049BC00A6D1FB68DB8F9BB2002BA1D17CE0FB68FE
:1049CC005B68002B02D07B8B012B6BD1FB681A6BC5
:1049DC00FB681B680C3312781A70FB681B6B5A1C33
:1049EC00FB681A63FB68DB8E9BB2013B9AB2FB68D7
:1049FC00DA8657E0FB681B689B6803F00203022B06
:104A0C001CD1FB68DB8E9BB2002B17D0FB6A012BF1
:104A1C0014D1FB681A6BFB681B680C3312781A7084
:104A2C00FB681B6B5A1CFB681A63FB68DB8E9BB222
:104A3C00013B9AB2FB68DA860023FB62FB681B68B9
:104A4C009B6803F00103012B19D1FB68DB8F9BB230
:104A5C00002B14D0FB681B68DA68FB689B6BD2B226
:104A6C001A70FB689B6B5A1CFB689A63FB68DB8FA4
:104A7C009BB2013B9AB2FB68DA870123FB62FDF71C
:104A8C00BFFD02467B6AD31ABA6B9A4203D8BB6B42
:104A9C00B3F1FF3F02D1BB6B002B03D1032387F88B
:104AAC002B3029E0FB68DB8E9BB2002BA2D1FB687C
:104ABC00DB8F9BB2002B9DD17A6AB96BF86800F042
:104ACC00B1F80346002B06D0012387F82B30FB6886
:104ADC0020225A6510E0FB689B68002B0BD1002349
:104AEC007B61FB681B68DB687B61FB681B689B68F0
:104AFC007B617B6900E000BFFB68012283F85120D9
:104B0C00FB68002283F8502097F82B30184630377A
:104B1C00BD4680BD80B588B000AFF860B9603B6021
:104B2C001346FB71FDF76CFD0246BB6A9B1A3A6893
:104B3C001344FB61FDF764FDB861394B1B685B01E5
:104B4C001B0DFA6902FB03F37B6154E03B68B3F184
:104B5C00FF3F50D0FDF754FD0246BB69D31AFA69EA
:104B6C009A4202D9FB69002B3DD1FB681B685A683D
:104B7C00FB681B6822F0E0025A60FB685B68B3F5C7
:104B8C00827F11D1FB689B68B3F5004F04D0FB68A2
:104B9C009B68B3F5806F07D1FB681B681A68FB68CC
:104BAC001B6822F040021A60FB689B6AB3F5005F39
:104BBC000FD1FB681B681A68FB681B6822F4005253
:104BCC001A60FB681B681A68FB681B6842F4005289
:104BDC001A60FB68012283F85120FB68002283F8DD
:104BEC005020032317E07B69002B01D10023FB61CC
:104BFC007B69013B7B61FB681B689A68BB6813404F
:104C0C00BA689A420CBF01230023DBB21A46FB7927
:104C1C009A429BD1002318462037BD4680BD00BF69
:104C2C000400002080B586B002AFF860B9607A60ED
:104C3C007B680093BB6800228021F868FFF76AFF4D
:104C4C000346002B07D0FB685B6D43F02002FB682A
:104C5C005A65032300E0002318461037BD4680BD7B
:104C6C0080B582B000AF78607B68002B01D1012346
:104C7C0041E07B6893F83D30DBB2002B06D17B68BA
:104C8C00002283F83C207868FCF7D4FB7B68022276
:104C9C0083F83D207B681A687B68043319461046FC
:104CAC0000F070FA7B68012283F846207B680122B1
:104CBC0083F83E207B68012283F83F207B68012229
:104CCC0083F840207B68012283F841207B68012215
:104CDC0083F842207B68012283F843207B68012201
:104CEC0083F844207B68012283F845207B680122ED
:104CFC0083F83D20002318460837BD4680BD0000D0
:104D0C0080B485B000AF78607B6893F83D30DBB23F
:104D1C00012B01D001233AE07B68022283F83D206D
:104D2C007B681B68DA687B681B6842F00102DA60FA
:104D3C007B681B68184A93420ED07B681B68B3F1E2
:104D4C00804F09D07B681B68144A934204D07B685F
:104D5C001B68134A934211D17B681B689B6803F054
:104D6C000703FB60FB68062B10D07B681B681A6876
:104D7C007B681B6842F001021A6007E07B681B68C5
:104D8C001A687B681B6842F001021A6000231846FF
:104D9C001437BD4680BC7047002C01400004004015
:104DAC000008004080B582B000AF78607B681B685B
:104DBC001B6903F00203022B22D17B681B68DB68A2
:104DCC0003F00203022B1BD17B681B686FF00202FD
:104DDC001A617B6801221A777B681B689B6903F058
:104DEC000303002B03D0786800F0B1F905E0786874
:104DFC0000F0A4F9786800F0B3F97B6800221A7708
:104E0C007B681B681B6903F00403042B22D17B68AD
:104E1C001B68DB6803F00403042B1BD17B681B6845
:104E2C006FF004021A617B6802221A777B681B6898
:104E3C009B6903F44073002B03D0786800F087F96A
:104E4C0005E0786800F07AF9786800F089F97B68F9
:104E5C0000221A777B681B681B6903F00803082B78
:104E6C0022D17B681B68DB6803F00803082B1BD17D
:104E7C007B681B686FF008021A617B6804221A7742
:104E8C007B681B68DB6903F00303002B03D0786895
:104E9C0000F05DF905E0786800F050F9786800F0F2
:104EAC005FF97B6800221A777B681B681B6903F02B
:104EBC001003102B22D17B681B68DB6803F01003F6
:104ECC00102B1BD17B681B686FF010021A617B687A
:104EDC0008221A777B681B68DB6903F44073002B8C
:104EEC0003D0786800F033F905E0786800F026F913
:104EFC00786800F035F97B6800221A777B681B68AC
:104F0C001B6903F00103012B0ED17B681B68DB6866
:104F1C0003F00103012B07D17B681B686FF00102C2
:104F2C001A617868FBF7A8FE7B681B681B6903F0A5
:104F3C008003802B0ED17B681B68DB6803F0800339
:104F4C00802B07D17B681B686FF080021A61786830
:104F5C0000F077FA7B681B681B6903F04003402B59
:104F6C000ED17B681B68DB6803F04003402B07D134
:104F7C007B681B686FF040021A61786800F0F9F8E2
:104F8C007B681B681B6903F02003202B0ED17B6808
:104F9C001B68DB6803F02003202B07D17B681B68A0
:104FAC006FF020021A61786800F042FA00BF0837EF
:104FBC00BD4680BD80B584B000AF786039607B6839
:104FCC0093F83C30012B01D10223B3E07B68012222
:104FDC0083F83C207B68022283F83D207B681B68A9
:104FEC009B68FB60FB6823F07703FB60FB6823F492
:104FFC007F43FB607B681B68FA689A603B681B68A0
:10500C00B3F5005F3ED0B3F5005F00F28780B3F5D7
:10501C00805F00F08580B3F5805F7FD8702B1AD04D
:10502C00702B7BD8602B50D0602B77D8502B3CD07A
:10503C00502B73D8402B58D0402B6FD8302B64D0CA
:10504C00302B6BD8202B60D0202B67D8002B5CD05A
:10505C00102B5AD062E07B6818683B6899683B68F3
:10506C005A683B68DB6800F066F97B681B689B68D4
:10507C00FB60FB6843F07703FB607B681B68FA6896
:10508C009A604EE07B6818683B6899683B685A6880
:10509C003B68DB6800F04FF97B681B689A687B689B
:1050AC001B6842F480429A603BE07B6818683B685E
:1050BC0059683B68DB681A4600F0C6F87B681B68C9
:1050CC005021184600F01DF92BE07B6818683B68EE
:1050DC0059683B68DB681A4600F0E4F87B681B688B
:1050EC006021184600F00DF91BE07B6818683B68DE
:1050FC0059683B68DB681A4600F0A6F87B681B68A9
:10510C004021184600F0FDF80BE07B681A683B68FC
:10511C001B681946104600F0F4F802E000BF00E0EE
:10512C0000BF7B68012283F83D207B68002283F856
:10513C003C20002318461037BD4680BD80B483B098
:10514C0000AF786000BF0C37BD4680BC704780B4A0
:10515C0083B000AF786000BF0C37BD4680BC704791
:10516C0080B483B000AF786000BF0C37BD4680BC04
:10517C00704780B483B000AF786000BF0C37BD4679
:10518C0080BC704780B485B000AF786039607B68B4
:10519C001B68FB607B68294A93420BD07B68B3F198
:1051AC00804F07D07B68264A934203D07B68254A00
:1051BC00934208D1FB6823F07003FB603B685B688B
:1051CC00FA681343FB607B681C4A93420BD07B68E4
:1051DC00B3F1804F07D07B68194A934203D07B68A8
:1051EC00184A934208D1FB6823F44073FB603B6878
:1051FC00DB68FA681343FB60FB6823F080023B68B2
:10520C005B691343FB607B68FA681A603B689A68B9
:10521C007B68DA623B681A687B689A627B68074A2B
:10522C00934203D13B681A697B681A637B6801223D
:10523C005A6100BF1437BD4680BC7047002C01403A
:10524C00000400400008004080B487B000AFF86054
:10525C00B9607A60FB681B6A7B61FB681B6A23F090
:10526C000102FB681A62FB689B693B613B6923F096
:10527C00F0033B617B681B013A6913433B617B691B
:10528C0023F00A037B617A69BB6813437B61FB687B
:10529C003A699A61FB687A691A6200BF1C37BD468D
:1052AC0080BC704780B487B000AFF860B9607A609A
:1052BC00FB681B6A23F01002FB681A62FB689B698F
:1052CC007B61FB681B6A3B617B6923F470437B61E8
:1052DC007B681B037A6913437B613B6923F0A00352
:1052EC003B61BB681B013A6913433B61FB687A69FC
:1052FC009A61FB683A691A6200BF1C37BD4680BCD4
:10530C00704780B485B000AF786039607B689B686B
:10531C00FB60FB6823F07003FB603A68FB68134387
:10532C0043F00703FB607B68FA689A6000BF143790
:10533C00BD4680BC704780B487B000AFF860B960E0
:10534C007A603B60FB689B687B617B6923F47F43DD
:10535C007B613B681A027B681A43BB6813437A690A
:10536C0013437B61FB687A699A6000BF1C37BD46AA
:10537C0080BC704780B485B000AF786039607B68C2
:10538C0093F83C30012B01D1022346E07B680122CB
:10539C0083F83C207B68022283F83D207B681B68E5
:1053AC005B68FB607B681B689B68BB60FB6823F0D9
:1053BC007003FB603B681B68FA681343FB607B68F7
:1053CC001B68FA685A607B681B68164A93420ED0B9
:1053DC007B681B68B3F1804F09D07B681B68124A4D
:1053EC00934204D07B681B68104A93420CD1BB6873
:1053FC0023F08003BB603B685B68BA681343BB60F7
:10540C007B681B68BA689A607B68012283F83D2030
:10541C007B68002283F83C20002318461437BD46D5
:10542C0080BC7047002C0140000400400008004084
:10543C0080B483B000AF786000BF0C37BD4680BC31
:10544C00704780B483B000AF786000BF0C37BD46A6
:10545C0080BC704780B582B000AF78607B68002B51
:10546C0001D101233FE07B6893F83D30DBB2002B88
:10547C0006D17B68002283F83C207868FCF71AF888
:10548C007B68242283F83D207B681B68DA687B6884
:10549C001B6822F40052DA60786800F085FC7B68A7
:1054AC001B681A697B681B6822F490421A617B683E
:1054BC001B685A697B681B6822F02A025A617B6858
:1054CC001B68DA687B681B6842F40052DA607B6800
:1054DC0000221A647B68202283F83D207B682022FE
:1054EC0083F83E20002318460837BD4680BD80B5A2
:1054FC008AB002AFF860B9603B601346FB800023B2
:10550C007B61FB6893F83D30DBB2202B7CD1BB6810
:10551C00002B02D0FB88002B01D1012375E0FB6826
:10552C0093F83C30012B01D102236EE0FB68012281
:10553C0083F83C20FB6800221A64FB68212283F864
:10554C003D20FDF75DF87861FB68FA889A84FB686A
:10555C00FA88DA84FB689B68B3F5805F08D1FB6836
:10556C001B69002B04D10023FB61BB68BB6103E00A
:10557C00BB68FB610023BB61FB68002283F83C2005
:10558C002AE03B6800937B6900228021F86800F0D8
:10559C0038FA0346002B01D0032336E0FB69002BBD
:1055AC000BD1BB691B881A46FB681B68C2F3080247
:1055BC005A60BB690233BB6107E0FB691A78FB6870
:1055CC001B685A60FB690133FB61FB68DB8C9BB287
:1055DC00013B9AB2FB68DA84FB68DB8C9BB2002B34
:1055EC00CFD13B6800937B6900224021F86800F022
:1055FC0008FA0346002B01D0032306E0FB682022A7
:10560C0083F83D20002300E0022318462037BD46D6
:10561C0080BD80B584B000AFF860B9601346FB80E4
:10562C00FB6893F83E30DBB2202B1DD1BB68002BFE
:10563C0002D0FB88002B01D1012316E0FB6893F804
:10564C003C30012B01D102230FE0FB68012283F8CF
:10565C003C20FB6800221A63FB881A46B968F8687C
:10566C0000F019FA034600E0022318461037BD4635
:10567C0080BD000080B58AB000AF78607B681B6885
:10568C001B687B627B681B68DB683B627B681B6802
:10569C005B69FB610023BB6100237B617B6A03F0C8
:1056AC000F03BB61BB69002B0DD17B6A03F0200398
:1056BC00002B08D03B6A03F02003002B03D0786842
:1056CC0000F0C9FA7BE1BB69002B00F0B180FB69EB
:1056DC0003F00103002B05D13B6A03F49073002BFC
:1056EC0000F0A6807B6A03F00103002B0AD03B6A12
:1056FC0003F48073002B05D07B681B6C43F0010214
:10570C007B681A647B6A03F00403002B0AD0FB69E4
:10571C0003F00103002B05D07B681B6C43F00202E5
:10572C007B681A647B6A03F00203002B0AD0FB69C6
:10573C0003F00103002B05D07B681B6C43F00402C3
:10574C007B681A647B6A03F00803002B0FD03B6A5A
:10575C0003F02003002B04D1FB6903F00103002BA1
:10576C0005D07B681B6C43F008027B681A647B686D
:10577C001B6C002B00F01E817B6A03F02003002BB6
:10578C0007D03B6A03F02003002B02D0786800F0AE
:10579C0062FA7B681B685B6903F04003002B14BF43
:1057AC0001230023DBB27B617B681B6C03F00803D5
:1057BC00002B02D17B69002B31D0786800F0A4F962
:1057CC007B681B685B6903F04003002B23D07B686C
:1057DC001B685A697B681B6822F040025A617B681F
:1057EC009B6B002B13D07B689B6B764A5A637B6850
:1057FC009B6B1846FDF7DCFD0346002B16D07B682F
:10580C009B6B5B6B7A68926B104698470EE07868DE
:10581C0000F0E3F80AE0786800F0DFF806E078685A
:10582C0000F0DBF87B6800221A64C3E000BFC1E023
:10583C007B681B6B012B40F0A1807B6A03F010038B
:10584C00002B00F09B803B6A03F01003002B00F050
:10585C0095800023FB607B681B681B68FB607B6882
:10586C001B685B68FB60FB687B681B685B6903F00B
:10587C004003002B4ED07B689B6B1B685B683B82A4
:10588C003B8A002B00F098807B689B8D3A8A9A4269
:10589C0080F092807B683A8ADA857B689B6B9B6987
:1058AC00202B2BD07B681B68DA687B681B6822F482
:1058BC008072DA607B681B685A697B681B6822F00F
:1058CC0001025A617B681B685A697B681B6822F06D
:1058DC0040025A617B68202283F83E207B680022BC
:1058EC001A637B681B68DA687B681B6822F01002FD
:1058FC00DA607B689B6B1846FDF71FFD7B689A8D01
:10590C007B68DB8D9BB2D31A9BB21946786800F08A
:10591C006DF851E07B689A8D7B68DB8D9BB2D31A56
:10592C007B827B68DB8D9BB2002B47D07B8A002B64
:10593C0044D07B681B68DA687B681B6822F4907221
:10594C00DA607B681B685A697B681B6822F001026D
:10595C005A617B68202283F83E207B6800221A6300
:10596C007B681B68DA687B681B6822F01002DA60BF
:10597C007B8A1946786800F039F81FE07B6A03F0DF
:10598C008003002B08D03B6A03F08003002B03D06C
:10599C00786800F0F9F812E07B6A03F04003002B02
:1059AC000DD03B6A03F04003002B08D0786800F060
:1059BC003AF904E000BF02E000BF00E000BF283766
:1059CC00BD4680BD6D5B000880B483B000AF7860CD
:1059DC0000BF0C37BD4680BC704780B483B000AFAD
:1059EC00786000BF0C37BD4680BC704780B483B074
:1059FC0000AF78600B467B8000BF0C37BD4680BC87
:105A0C00704780B584B000AFF860B9603B60134656
:105A1C00FB712CE0BB69B3F1FF3F28D0BB69002BB5
:105A2C0007D0FCF7EDFD02463B68D31ABA699A42DF
:105A3C001DD2FB681B68DA68FB681B6822F4D07205
:105A4C00DA60FB681B685A69FB681B6822F001026C
:105A5C005A61FB68202283F83D20FB68202283F8E2
:105A6C003E20FB68002283F83C2003230FE0FB68F8
:105A7C001B681A68BB681340BA689A420CBF0123B2
:105A8C000023DBB21A46FB799A42C3D00023184696
:105A9C001037BD4680BD80B485B000AFF860B960EA
:105AAC001346FB80FB68BA689A62FB68FA889A8591
:105ABC00FB68FA88DA85FB6800221A64FB682222EC
:105ACC0083F83E20FB68002283F83C20FB681B68AF
